:020000020000FC
:0200000018C323
:1000E400000000000000000000000000000000000C
:1000F400000008950000000000000000000000005F
:100104000000000000000000000000008A9580301C
:1001140089F70895282F34E08AEFECDF3A953030E0
:10012400D9F72A952030B9F7089544E08AEFF2DF31
:100134004A954030D9F70895182F44E08AEFEADF52
:100144004A954030D9F71A951030B9F70895000050
:1001540000000000005F00000007000700147F1487
:100164007F14242A7F2A12231308646236495522F5
:10017400500005030000001C2241000041221C0025
:1001840014083E081408083E08080050300000080F
:1001940008080808006060000020100804023E51AE
:1001A40049453E00427F4000426151494621414554
:1001B4004B311814127F1027454545393C4A4949AB
:1001C4003001710905033649494936064949291E52
:1001D4000036360000005636000008142241001490
:1001E400141414140041221408020151090632495E
:1001F40079413E7E1111117E7F494949363E414184
:1002040041227F4141221C7F494949417F09090913
:10021400013E4149497A7F0808087F00417F410037
:100224002040413F017F081422417F404040407FED
:10023400020C027F7F0408107F3E4141413E7F094A
:100244000909063E4151215E7F091929464649495B
:10025400493101017F01013F4040403F1F204020C0
:100264001F3F4038403F63140814630708700807B1
:1002740061514945430084E14DDF2D9A8AE04ADF0C
:100284002E9A2C9881E233D02C9883E130D02C988C
:1002940080EC2DD02C9884E02AD02C9880E227D0B2
:1002A4002C988CE024D008951F018491803029F08B
:1002B4002C9A04D0F1013196F7CF0895082F0052FB
:1002C40015E0019FF1E0E2E5E00DF11D84910FD00E
:1002D400319684910CD03196849109D031968491D1
:1002E40006D03196849103D080E001D008952E98F1
:1002F400082F20E010E81023103031F4809102011F
:100304008F7B8093020105C08091020180648093F9
:10031400020180910201806280930201E1DE8091FA
:1003240002018F7D80930201000F2395283011F77D
:100334002E9A089534E580E22C9AC0DF3A95303045
:10034400D1F72C9880E8D3DF2C9880E4D0DF08958F
:10035400303132333435361030E0A59873988091BB
:100364000201877F80930201809102018F7E809336
:10037400020182E0BFDEA59A82E0BCDE7D994BC01B
:1003840033957C9948C03395649945C033956599F4
:1003940042C03395A598739A82E0ACDE7D993BC048
:1003A40033957C9938C03395649935C033956599F4
:1003B40032C0339573988091020188608093020162
:1003C40082E098DE7D9927C033957C9924C03395CB
:1003D400649921C0339565991EC0339580910201BB
:1003E400877F8093020180910201806180930201E2
:1003F40082E080DE7D990FC033957C990CC03395E3
:10040400649909C03395659906C0339580910201BA
:100414008F7E80930201832F0895F3E0E4E5E80FD3
:1004240080E0F81F82E376DE84910895524F4C4CAD
:10043400494E472E2E0056414C55453A00008CDF5C
:100444008430E9F777DFF4E0E0E32EDF09D072DFF0
:10045400F4E0EAE329DF842FE0DF2C9A2FDF08950C
:1004640046E00000000078DF843009F008954A95E2
:10047400B9F3F7CF434C454152494E472E2E2E0037
:100484005448524F57533A004E4252204F4620315F
:1004940027533A004E4252204F46203227533A0007
:1004A4004E4252204F46203327533A004E425220A8
:1004B4004F46203427533A004E4252204F462035AF
:1004C40027533A004E4252204F46203627533A00D3
:1004D400A4D0089530313233343536373839414277
:1004E40043444546F4E0E8ED582E82958F70E80FBA
:1004F4006624F61D84912C9AE1DE852D8F70F4E03C
:10050400E8EDE80F6624F61D84912C9AD7DE089551
:1005140011DFF4E0E4E8C8DE80E07AD0E3DF05DE52
:1005240009DFF4E0ECE8C0DE81E072D0DBDFFDDD62
:1005340001DFF4E0E8E9B8DE82E06AD0D3DFF5DD7C
:10054400F9DEF4E0E4EAB0DE83E062D0CBDFEDDD97
:10055400F1DEF4E0E0EBA8DE84E05AD0C3DFE5DDB1
:10056400E9DEF4E0ECEBA0DE85E052D0BBDFDDDDBC
:10057400E1DEF4E0E8EC98DE86E04AD0B3DFD5DDD6
:10058400D9DE0895D7DEF4E0E8E78EDE46D008959C
:100594004D4F4E49544F52000895DEDE833049F0EA
:1005A4008B3039F0803111F4382EF7CF8315A9F34D
:1005B400382E08958EE32C9A81DE8B2F93DF8A2FB9
:1005C40091DF8AE32C9A7ADE0895B4DEF5E0E4E95B
:1005D4006BDEABDDB0E0A0E0ADDEECDF8D9182DF61
:1005E400DCDF833051F08B3029F017DF8053B82FD4
:1005F400AA27F2CF88EC8EDDEFCF0895A0E0B2E019
:100604003C9133953C93A40F3C9133953C930895CE
:10061400A0E0B2E0A80F8C910895A0E0B2E040E021
:1006240087E04D938A958030E1F77FDD08950FEFE1
:100634000DBF01E20EBF03D00ED01DDE0EC000E7D9
:1006440004B908E70093010108E00DB900E000BB1C
:1006540000E203BB0895279A08956CDE57454C4386
:100664004F4D4500F6E0E0E61FDE5FDD63DE5052ED
:100674005353203220544F20524F4C4C0000F6E08C
:10068400E2E712DE0CD0DBDEB9DF4FDD53DEEFDF55
:100694003FDF50DEECDF76DF4DDEE9DF96DF5CDE48
:1006A4008031E9F3843079F3883091F3863099F31B
:0606B4008A30A1F3F4DF1F
:00000001FF
