:1000000071C0000086C0000084C0000082C00000F3
:1000100080C000007EC000007CC000007AC00000EC
:1000200078C0000076C0000074C0000072C00000FC
:1000300070C000006EC000006CC000006AC000000C
:1000400068C0000066C0000064C0000062C000001C
:1000500060C000005EC000005CC000005AC000002C
:1000600058C0000056C0000054C0000052C000003C
:1000700050C000004EC000004CC000004AC000004C
:1000800048C0000046C0000044C0000042C000005C
:1000900040C000003EC000003CC000003AC000006C
:1000A00038C0000036C0000034C0000032C000007C
:1000B00030C000002EC000002CC000002AC000008C
:1000C00028C0000026C0000024C0000022C000009C
:1000D00020C000001EC000001CC000001AC00000AC
:1000E00018C0000011241FBECFEFD1E2DEBFCDBF8C
:1000F00000E00CBF12E0A0E0B2E0EEECF1E000E0C6
:100100000BBF02C007900D92A030B107D9F713D0F2
:100110005CC076CFCF93DF931F92CDB7DEB7198245
:1001200089818F5F898389818F5F89830F90DF91B8
:10013000CF91089508953ED01CD03BD0FFCF0F93B0
:100140001F93CF93DF93082F85B118E0C2E0D1E071
:10015000002314F4888101C088818881DBDF8881D5
:10016000000F1150A9F785B1DF91CF911F910F9129
:100170000895E1E0F1E08081808184B184B184B1AF
:1001800084E1D8DF85B18AE0D5DF85B185B181E230
:10019000D6DF85B183E1D3DF85B185ECD0DF85B1D2
:1001A00084E0CDDF85B180E2CADF85B18CE0C7CFC6
:1001B0000895089583B38DB1E1E0F1E080818081FD
:0E01C00080B380B38DB18DB10895F894FFCF58
:00000001FF
